{
  "_format": "hh3-artifact-1",
  "contractName": "BooksMarketplace",
  "sourceName": "contracts/BooksMarketplace.sol",
  "abi": [
    {
      "inputs": [],
      "stateMutability": "nonpayable",
      "type": "constructor"
    },
    {
      "inputs": [
        {
          "internalType": "address",
          "name": "owner",
          "type": "address"
        }
      ],
      "name": "OwnableInvalidOwner",
      "type": "error"
    },
    {
      "inputs": [
        {
          "internalType": "address",
          "name": "account",
          "type": "address"
        }
      ],
      "name": "OwnableUnauthorizedAccount",
      "type": "error"
    },
    {
      "inputs": [],
      "name": "ReentrancyGuardReentrantCall",
      "type": "error"
    },
    {
      "anonymous": false,
      "inputs": [
        {
          "indexed": true,
          "internalType": "address",
          "name": "nftContract",
          "type": "address"
        },
        {
          "indexed": true,
          "internalType": "uint256",
          "name": "tokenId",
          "type": "uint256"
        },
        {
          "indexed": true,
          "internalType": "address",
          "name": "seller",
          "type": "address"
        },
        {
          "indexed": false,
          "internalType": "uint256",
          "name": "price",
          "type": "uint256"
        }
      ],
      "name": "BookListed",
      "type": "event"
    },
    {
      "anonymous": false,
      "inputs": [
        {
          "indexed": true,
          "internalType": "address",
          "name": "nftContract",
          "type": "address"
        },
        {
          "indexed": true,
          "internalType": "uint256",
          "name": "tokenId",
          "type": "uint256"
        },
        {
          "indexed": true,
          "internalType": "address",
          "name": "buyer",
          "type": "address"
        },
        {
          "indexed": false,
          "internalType": "address",
          "name": "seller",
          "type": "address"
        },
        {
          "indexed": false,
          "internalType": "uint256",
          "name": "price",
          "type": "uint256"
        }
      ],
      "name": "BookSold",
      "type": "event"
    },
    {
      "anonymous": false,
      "inputs": [
        {
          "indexed": true,
          "internalType": "address",
          "name": "nftContract",
          "type": "address"
        },
        {
          "indexed": true,
          "internalType": "uint256",
          "name": "tokenId",
          "type": "uint256"
        },
        {
          "indexed": true,
          "internalType": "address",
          "name": "seller",
          "type": "address"
        }
      ],
      "name": "ListingCancelled",
      "type": "event"
    },
    {
      "anonymous": false,
      "inputs": [
        {
          "indexed": true,
          "internalType": "address",
          "name": "previousOwner",
          "type": "address"
        },
        {
          "indexed": true,
          "internalType": "address",
          "name": "newOwner",
          "type": "address"
        }
      ],
      "name": "OwnershipTransferred",
      "type": "event"
    },
    {
      "inputs": [
        {
          "internalType": "address",
          "name": "_nftContract",
          "type": "address"
        },
        {
          "internalType": "uint256",
          "name": "_tokenId",
          "type": "uint256"
        }
      ],
      "name": "buyBook",
      "outputs": [],
      "stateMutability": "payable",
      "type": "function"
    },
    {
      "inputs": [
        {
          "internalType": "address",
          "name": "_nftContract",
          "type": "address"
        },
        {
          "internalType": "uint256",
          "name": "_tokenId",
          "type": "uint256"
        }
      ],
      "name": "cancelListing",
      "outputs": [],
      "stateMutability": "nonpayable",
      "type": "function"
    },
    {
      "inputs": [
        {
          "internalType": "address",
          "name": "_nftContract",
          "type": "address"
        },
        {
          "internalType": "uint256",
          "name": "_tokenId",
          "type": "uint256"
        },
        {
          "internalType": "uint256",
          "name": "_price",
          "type": "uint256"
        }
      ],
      "name": "listBook",
      "outputs": [],
      "stateMutability": "nonpayable",
      "type": "function"
    },
    {
      "inputs": [
        {
          "internalType": "address",
          "name": "",
          "type": "address"
        },
        {
          "internalType": "uint256",
          "name": "",
          "type": "uint256"
        }
      ],
      "name": "listings",
      "outputs": [
        {
          "internalType": "uint256",
          "name": "price",
          "type": "uint256"
        },
        {
          "internalType": "address",
          "name": "seller",
          "type": "address"
        }
      ],
      "stateMutability": "view",
      "type": "function"
    },
    {
      "inputs": [
        {
          "internalType": "address",
          "name": "",
          "type": "address"
        },
        {
          "internalType": "address",
          "name": "",
          "type": "address"
        },
        {
          "internalType": "uint256",
          "name": "",
          "type": "uint256"
        },
        {
          "internalType": "bytes",
          "name": "",
          "type": "bytes"
        }
      ],
      "name": "onERC721Received",
      "outputs": [
        {
          "internalType": "bytes4",
          "name": "",
          "type": "bytes4"
        }
      ],
      "stateMutability": "pure",
      "type": "function"
    },
    {
      "inputs": [],
      "name": "owner",
      "outputs": [
        {
          "internalType": "address",
          "name": "",
          "type": "address"
        }
      ],
      "stateMutability": "view",
      "type": "function"
    },
    {
      "inputs": [],
      "name": "renounceOwnership",
      "outputs": [],
      "stateMutability": "nonpayable",
      "type": "function"
    },
    {
      "inputs": [
        {
          "internalType": "address",
          "name": "newOwner",
          "type": "address"
        }
      ],
      "name": "transferOwnership",
      "outputs": [],
      "stateMutability": "nonpayable",
      "type": "function"
    }
  ],
  "bytecode": "0x6080604052348015600e575f5ffd5b5060017f9b779b17422d0df92223018b32b4d1fa46e071723d6817e2486d003becc55f00553380605757604051631e4fbdf760e01b81525f600482015260240160405180910390fd5b605e816063565b5060b2565b5f80546001600160a01b038381166001600160a01b0319831681178455604051919092169283917f8be0079c531659141344cd1fd0a4f28419497f9722a3daafe3b4186f6b6457e09190a35050565b610aca806100bf5f395ff3fe608060405260043610610078575f3560e01c80637e8ddbbb1161004c5780637e8ddbbb1461014e5780638da5cb5b1461016d578063b2ddee0614610193578063f2fde38b146101b2575f5ffd5b806207df301461007c578063150b7a02146100e157806367ecd84314610125578063715018a61461013a575b5f5ffd5b348015610087575f5ffd5b506100bf610096366004610923565b600160208181525f9384526040808520909152918352912080549101546001600160a01b031682565b604080519283526001600160a01b039091166020830152015b60405180910390f35b3480156100ec575f5ffd5b5061010c6100fb36600461094d565b630a85bd0160e11b95945050505050565b6040516001600160e01b031990911681526020016100d8565b610138610133366004610923565b6101d1565b005b348015610145575f5ffd5b506101386104c5565b348015610159575f5ffd5b506101386101683660046109e6565b6104d8565b348015610178575f5ffd5b505f546040516001600160a01b0390911681526020016100d8565b34801561019e575f5ffd5b506101386101ad366004610923565b610707565b3480156101bd575f5ffd5b506101386101cc366004610a18565b61080d565b6101d961084a565b6001600160a01b038083165f9081526001602081815260408084208685528252928390208351808501909452805480855292015490931692820192909252906102695760405162461bcd60e51b815260206004820152601860248201527f4974656d206e6f74206c697374656420666f722073616c65000000000000000060448201526064015b60405180910390fd5b805134146102b05760405162461bcd60e51b8152602060048201526014602482015273125b98dbdc9c9958dd081c1c9a58d9481cd95b9d60621b6044820152606401610260565b60208101516001600160a01b0316330361030c5760405162461bcd60e51b815260206004820152601860248201527f43616e6e6f742062757920796f7572206f776e20626f6f6b00000000000000006044820152606401610260565b6001600160a01b038381165f908152600160208181526040808420878552825280842084815590920180546001600160a01b031916905584015190519192169034908381818185875af1925050503d805f8114610384576040519150601f19603f3d011682016040523d82523d5f602084013e610389565b606091505b50509050806103da5760405162461bcd60e51b815260206004820152601d60248201527f455448205472616e7366657220746f2073656c6c6572206661696c65640000006044820152606401610260565b6020820151604051632142170760e11b81526001600160a01b03918216600482015233602482015260448101859052908516906342842e0e906064015f604051808303815f87803b15801561042d575f5ffd5b505af115801561043f573d5f5f3e3d5ffd5b50505050336001600160a01b031683856001600160a01b03167fd24c26ca0749972b67b96dfdbe0013ab61be41d42ea026f5cb5171a3dfb0ae2c8560200151346040516104a19291906001600160a01b03929092168252602082015260400190565b60405180910390a450506104c160015f516020610a755f395f51905f5255565b5050565b6104cd610865565b6104d65f610891565b565b6104e061084a565b5f811161052f5760405162461bcd60e51b815260206004820152601f60248201527f5072696365206d7573742062652067726561746572207468616e207a65726f006044820152606401610260565b60405163e985e9c560e01b81523360048201523060248201526001600160a01b0384169063e985e9c590604401602060405180830381865afa158015610577573d5f5f3e3d5ffd5b505050506040513d601f19601f8201168201806040525081019061059b9190610a3a565b80610615575060405163020604bf60e21b81526004810183905230906001600160a01b0385169063081812fc90602401602060405180830381865afa1580156105e6573d5f5f3e3d5ffd5b505050506040513d601f19601f8201168201806040525081019061060a9190610a59565b6001600160a01b0316145b6106615760405162461bcd60e51b815260206004820152601860248201527f4d61726b6574706c616365206e6f7420617070726f76656400000000000000006044820152606401610260565b6040805180820182528281523360208083018281526001600160a01b038881165f81815260018086528882208b83528652908890209651875592519590920180546001600160a01b0319169590911694909417909355925184815290928592917f42815242d618f4a0460dec5711d9b402613a0795a9ffc697c8adbc265964081a910160405180910390a461070260015f516020610a755f395f51905f5255565b505050565b61070f61084a565b6001600160a01b038083165f908152600160208181526040808420868552825292839020835180850190945280548452909101549092169181018290529033146107945760405162461bcd60e51b81526020600482015260166024820152752cb7ba9030b932903737ba103a34329039b2b63632b960511b6044820152606401610260565b6001600160a01b0383165f81815260016020818152604080842087855290915280832083815590910180546001600160a01b0319169055513392859290917f8526cb6d400b8a551983c99e6d6fb1775b7a0deeb5d1e39d3ee65bc59e5eac279190a4506104c160015f516020610a755f395f51905f5255565b610815610865565b6001600160a01b03811661083e57604051631e4fbdf760e01b81525f6004820152602401610260565b61084781610891565b50565b6108526108e0565b60025f516020610a755f395f51905f5255565b5f546001600160a01b031633146104d65760405163118cdaa760e01b8152336004820152602401610260565b5f80546001600160a01b038381166001600160a01b0319831681178455604051919092169283917f8be0079c531659141344cd1fd0a4f28419497f9722a3daafe3b4186f6b6457e09190a35050565b5f516020610a755f395f51905f52546002036104d657604051633ee5aeb560e01b815260040160405180910390fd5b6001600160a01b0381168114610847575f5ffd5b5f5f60408385031215610934575f5ffd5b823561093f8161090f565b946020939093013593505050565b5f5f5f5f5f60808688031215610961575f5ffd5b853561096c8161090f565b9450602086013561097c8161090f565b935060408601359250606086013567ffffffffffffffff81111561099e575f5ffd5b8601601f810188136109ae575f5ffd5b803567ffffffffffffffff8111156109c4575f5ffd5b8860208284010111156109d5575f5ffd5b959894975092955050506020019190565b5f5f5f606084860312156109f8575f5ffd5b8335610a038161090f565b95602085013595506040909401359392505050565b5f60208284031215610a28575f5ffd5b8135610a338161090f565b9392505050565b5f60208284031215610a4a575f5ffd5b81518015158114610a33575f5ffd5b5f60208284031215610a69575f5ffd5b8151610a338161090f56fe9b779b17422d0df92223018b32b4d1fa46e071723d6817e2486d003becc55f00a2646970667358221220cb03fb6f7d803003519bafdef12ac6d81d1f49ebf8a6580c0bce05580504f97664736f6c634300081c0033",
  "linkReferences": {},
  "deployedLinkReferences": {},
  "immutableReferences": {},
  "inputSourceName": "project/contracts/BooksMarketplace.sol",
  "buildInfoId": "solc-0_8_28-103e27e09feb4fcd3f0116f3a100b70b7471d13d"
}