{
  "_format": "hh3-artifact-1",
  "contractName": "BooksMarketplace",
  "sourceName": "contracts/BooksMarketplace.sol",
  "abi": [
    {
      "inputs": [],
      "name": "AlreadyListed",
      "type": "error"
    },
    {
      "inputs": [],
      "name": "CannotBuyOwnBook",
      "type": "error"
    },
    {
      "inputs": [
        {
          "internalType": "uint256",
          "name": "expected",
          "type": "uint256"
        },
        {
          "internalType": "uint256",
          "name": "received",
          "type": "uint256"
        }
      ],
      "name": "IncorrectPriceSent",
      "type": "error"
    },
    {
      "inputs": [],
      "name": "ItemNotListed",
      "type": "error"
    },
    {
      "inputs": [],
      "name": "MarketplaceNotApproved",
      "type": "error"
    },
    {
      "inputs": [],
      "name": "NotSeller",
      "type": "error"
    },
    {
      "inputs": [],
      "name": "NotTokenOwner",
      "type": "error"
    },
    {
      "inputs": [],
      "name": "PriceExceedsMax",
      "type": "error"
    },
    {
      "inputs": [],
      "name": "PriceMustBeGreaterThanZero",
      "type": "error"
    },
    {
      "inputs": [],
      "name": "ReentrancyGuardReentrantCall",
      "type": "error"
    },
    {
      "inputs": [],
      "name": "SellerNoLongerOwnsToken",
      "type": "error"
    },
    {
      "inputs": [],
      "name": "TransferToSellerFailed",
      "type": "error"
    },
    {
      "anonymous": false,
      "inputs": [
        {
          "indexed": true,
          "internalType": "address",
          "name": "nftContract",
          "type": "address"
        },
        {
          "indexed": true,
          "internalType": "uint256",
          "name": "tokenId",
          "type": "uint256"
        },
        {
          "indexed": true,
          "internalType": "address",
          "name": "seller",
          "type": "address"
        },
        {
          "indexed": false,
          "internalType": "uint256",
          "name": "price",
          "type": "uint256"
        }
      ],
      "name": "BookListed",
      "type": "event"
    },
    {
      "anonymous": false,
      "inputs": [
        {
          "indexed": true,
          "internalType": "address",
          "name": "nftContract",
          "type": "address"
        },
        {
          "indexed": true,
          "internalType": "uint256",
          "name": "tokenId",
          "type": "uint256"
        },
        {
          "indexed": true,
          "internalType": "address",
          "name": "buyer",
          "type": "address"
        },
        {
          "indexed": false,
          "internalType": "address",
          "name": "seller",
          "type": "address"
        },
        {
          "indexed": false,
          "internalType": "uint256",
          "name": "price",
          "type": "uint256"
        }
      ],
      "name": "BookSold",
      "type": "event"
    },
    {
      "anonymous": false,
      "inputs": [
        {
          "indexed": true,
          "internalType": "address",
          "name": "nftContract",
          "type": "address"
        },
        {
          "indexed": true,
          "internalType": "uint256",
          "name": "tokenId",
          "type": "uint256"
        },
        {
          "indexed": true,
          "internalType": "address",
          "name": "seller",
          "type": "address"
        }
      ],
      "name": "ListingCancelled",
      "type": "event"
    },
    {
      "inputs": [
        {
          "internalType": "address",
          "name": "nftContract",
          "type": "address"
        },
        {
          "internalType": "uint256",
          "name": "tokenId",
          "type": "uint256"
        }
      ],
      "name": "buyBook",
      "outputs": [],
      "stateMutability": "payable",
      "type": "function"
    },
    {
      "inputs": [
        {
          "internalType": "address",
          "name": "nftContract",
          "type": "address"
        },
        {
          "internalType": "uint256",
          "name": "tokenId",
          "type": "uint256"
        }
      ],
      "name": "cancelListing",
      "outputs": [],
      "stateMutability": "nonpayable",
      "type": "function"
    },
    {
      "inputs": [
        {
          "internalType": "address",
          "name": "nftContract",
          "type": "address"
        },
        {
          "internalType": "uint256",
          "name": "tokenId",
          "type": "uint256"
        },
        {
          "internalType": "uint256",
          "name": "price",
          "type": "uint256"
        }
      ],
      "name": "listBook",
      "outputs": [],
      "stateMutability": "nonpayable",
      "type": "function"
    },
    {
      "inputs": [
        {
          "internalType": "address",
          "name": "",
          "type": "address"
        },
        {
          "internalType": "uint256",
          "name": "",
          "type": "uint256"
        }
      ],
      "name": "listings",
      "outputs": [
        {
          "internalType": "uint96",
          "name": "price",
          "type": "uint96"
        },
        {
          "internalType": "address",
          "name": "seller",
          "type": "address"
        }
      ],
      "stateMutability": "view",
      "type": "function"
    }
  ],
  "bytecode": "0x6080604052348015600e575f5ffd5b5060017f9b779b17422d0df92223018b32b4d1fa46e071723d6817e2486d003becc55f005561098c806100405f395ff3fe60806040526004361061003d575f3560e01c806207df301461004157806367ecd843146100ba5780637e8ddbbb146100cf578063b2ddee06146100ee575b5f5ffd5b34801561004c575f5ffd5b5061008f61005b366004610899565b5f6020818152928152604080822090935290815220546001600160601b03811690600160601b90046001600160a01b031682565b604080516001600160601b0390931683526001600160a01b0390911660208301520160405180910390f35b6100cd6100c8366004610899565b61010d565b005b3480156100da575f5ffd5b506100cd6100e93660046108c3565b61042f565b3480156100f9575f5ffd5b506100cd610108366004610899565b610659565b610115610743565b6001600160a01b038083165f9081526020818152604080832085845282528083208151808301909252546001600160601b038116808352600160601b9091049094169181019190915291900361017e5760405163d46afe9f60e01b815260040160405180910390fd5b805f01516001600160601b031634146101c2578051604051637f37dac760e01b81526001600160601b03909116600482015234602482015260440160405180910390fd5b60208101516001600160a01b031633036101ef57604051633ba51f8560e11b815260040160405180910390fd5b60208101516040516331a9108f60e11b81526004810184905284916001600160a01b039081169190831690636352211e90602401602060405180830381865afa15801561023e573d5f5f3e3d5ffd5b505050506040513d601f19601f8201168201806040525081019061026291906108f5565b6001600160a01b03161461028957604051634e44e47160e01b815260040160405180910390fd5b6102988183602001518561075e565b6102b55760405163a9248d2560e01b815260040160405180910390fd5b6001600160a01b038481165f908152602081815260408083208784528252808320929092558401519051632142170760e11b8152908216600482015233602482015260448101859052908216906342842e0e906064015f604051808303815f87803b158015610322575f5ffd5b505af1158015610334573d5f5f3e3d5ffd5b505050505f82602001516001600160a01b0316346040515f6040518083038185875af1925050503d805f8114610385576040519150601f19603f3d011682016040523d82523d5f602084013e61038a565b606091505b50509050806103ac57604051630d7481e760e21b815260040160405180910390fd5b336001600160a01b031684866001600160a01b03167fd24c26ca0749972b67b96dfdbe0013ab61be41d42ea026f5cb5171a3dfb0ae2c86602001513460405161040a9291906001600160a01b03929092168252602082015260400190565b60405180910390a450505061042b60015f5160206109375f395f51905f5255565b5050565b610437610743565b805f03610457576040516323a3620960e01b815260040160405180910390fd5b6001600160601b0381111561047f576040516337593f0360e21b815260040160405180910390fd5b6040516331a9108f60e11b815260048101839052839033906001600160a01b03831690636352211e90602401602060405180830381865afa1580156104c6573d5f5f3e3d5ffd5b505050506040513d601f19601f820116820180604052508101906104ea91906108f5565b6001600160a01b031614610511576040516359dc379f60e01b815260040160405180910390fd5b6001600160a01b038085165f908152602081815260408083208784528252918290208251808401909352546001600160601b038116808452600160601b909104909316908201529015801590610573575060208101516001600160a01b031633145b15610591576040516328f560bb60e21b815260040160405180910390fd5b61059c82338661075e565b6105b95760405163a9248d2560e01b815260040160405180910390fd5b6040805180820182526001600160601b0385811682523360208084018281526001600160a01b038b81165f8181528085528881208d8252855288902096519251909116600160601b029190941617909355925186815287927f42815242d618f4a0460dec5711d9b402613a0795a9ffc697c8adbc265964081a910160405180910390a4505061065460015f5160206109375f395f51905f5255565b505050565b6001600160a01b038083165f9081526020818152604080832085845282528083208151808301909252546001600160601b038116808352600160601b909104909416918101919091529190036106c25760405163d46afe9f60e01b815260040160405180910390fd5b60208101516001600160a01b031633146106ef57604051635ec8235160e01b815260040160405180910390fd5b6001600160a01b0383165f81815260208181526040808320868452909152808220829055513392859290917f8526cb6d400b8a551983c99e6d6fb1775b7a0deeb5d1e39d3ee65bc59e5eac279190a4505050565b61074b610851565b60025f5160206109375f395f51905f5255565b60405163e985e9c560e01b81526001600160a01b0383811660048301523060248301525f919085169063e985e9c590604401602060405180830381865afa1580156107ab573d5f5f3e3d5ffd5b505050506040513d601f19601f820116820180604052508101906107cf9190610917565b80610849575060405163020604bf60e21b81526004810183905230906001600160a01b0386169063081812fc90602401602060405180830381865afa15801561081a573d5f5f3e3d5ffd5b505050506040513d601f19601f8201168201806040525081019061083e91906108f5565b6001600160a01b0316145b949350505050565b5f5160206109375f395f51905f525460020361088057604051633ee5aeb560e01b815260040160405180910390fd5b565b6001600160a01b0381168114610896575f5ffd5b50565b5f5f604083850312156108aa575f5ffd5b82356108b581610882565b946020939093013593505050565b5f5f5f606084860312156108d5575f5ffd5b83356108e081610882565b95602085013595506040909401359392505050565b5f60208284031215610905575f5ffd5b815161091081610882565b9392505050565b5f60208284031215610927575f5ffd5b81518015158114610910575f5ffdfe9b779b17422d0df92223018b32b4d1fa46e071723d6817e2486d003becc55f00a26469706673582212205ebf44ac9fd6bf20b8f70562a54dc3a4c1a8943d443575c1acbf9c11a6b78f7264736f6c634300081c0033",
  "linkReferences": {},
  "deployedLinkReferences": {},
  "immutableReferences": {},
  "inputSourceName": "project/contracts/BooksMarketplace.sol",
  "buildInfoId": "solc-0_8_28-2b8e3d785e7592147e97ee6882b7591c1a538f18"
}