{
  "_format": "hh3-artifact-1",
  "contractName": "BookStoreNFT",
  "sourceName": "contracts/BookStoreNFT.sol",
  "abi": [
    {
      "inputs": [],
      "stateMutability": "nonpayable",
      "type": "constructor"
    },
    {
      "inputs": [
        {
          "internalType": "address",
          "name": "sender",
          "type": "address"
        },
        {
          "internalType": "uint256",
          "name": "tokenId",
          "type": "uint256"
        },
        {
          "internalType": "address",
          "name": "owner",
          "type": "address"
        }
      ],
      "name": "ERC721IncorrectOwner",
      "type": "error"
    },
    {
      "inputs": [
        {
          "internalType": "address",
          "name": "operator",
          "type": "address"
        },
        {
          "internalType": "uint256",
          "name": "tokenId",
          "type": "uint256"
        }
      ],
      "name": "ERC721InsufficientApproval",
      "type": "error"
    },
    {
      "inputs": [
        {
          "internalType": "address",
          "name": "approver",
          "type": "address"
        }
      ],
      "name": "ERC721InvalidApprover",
      "type": "error"
    },
    {
      "inputs": [
        {
          "internalType": "address",
          "name": "operator",
          "type": "address"
        }
      ],
      "name": "ERC721InvalidOperator",
      "type": "error"
    },
    {
      "inputs": [
        {
          "internalType": "address",
          "name": "owner",
          "type": "address"
        }
      ],
      "name": "ERC721InvalidOwner",
      "type": "error"
    },
    {
      "inputs": [
        {
          "internalType": "address",
          "name": "receiver",
          "type": "address"
        }
      ],
      "name": "ERC721InvalidReceiver",
      "type": "error"
    },
    {
      "inputs": [
        {
          "internalType": "address",
          "name": "sender",
          "type": "address"
        }
      ],
      "name": "ERC721InvalidSender",
      "type": "error"
    },
    {
      "inputs": [
        {
          "internalType": "uint256",
          "name": "tokenId",
          "type": "uint256"
        }
      ],
      "name": "ERC721NonexistentToken",
      "type": "error"
    },
    {
      "inputs": [],
      "name": "EmptyMetadataURI",
      "type": "error"
    },
    {
      "anonymous": false,
      "inputs": [
        {
          "indexed": true,
          "internalType": "address",
          "name": "owner",
          "type": "address"
        },
        {
          "indexed": true,
          "internalType": "address",
          "name": "approved",
          "type": "address"
        },
        {
          "indexed": true,
          "internalType": "uint256",
          "name": "tokenId",
          "type": "uint256"
        }
      ],
      "name": "Approval",
      "type": "event"
    },
    {
      "anonymous": false,
      "inputs": [
        {
          "indexed": true,
          "internalType": "address",
          "name": "owner",
          "type": "address"
        },
        {
          "indexed": true,
          "internalType": "address",
          "name": "operator",
          "type": "address"
        },
        {
          "indexed": false,
          "internalType": "bool",
          "name": "approved",
          "type": "bool"
        }
      ],
      "name": "ApprovalForAll",
      "type": "event"
    },
    {
      "anonymous": false,
      "inputs": [
        {
          "indexed": false,
          "internalType": "uint256",
          "name": "_fromTokenId",
          "type": "uint256"
        },
        {
          "indexed": false,
          "internalType": "uint256",
          "name": "_toTokenId",
          "type": "uint256"
        }
      ],
      "name": "BatchMetadataUpdate",
      "type": "event"
    },
    {
      "anonymous": false,
      "inputs": [
        {
          "indexed": true,
          "internalType": "uint256",
          "name": "tokenId",
          "type": "uint256"
        },
        {
          "indexed": true,
          "internalType": "address",
          "name": "author",
          "type": "address"
        }
      ],
      "name": "EBookMinted",
      "type": "event"
    },
    {
      "anonymous": false,
      "inputs": [
        {
          "indexed": false,
          "internalType": "uint256",
          "name": "_tokenId",
          "type": "uint256"
        }
      ],
      "name": "MetadataUpdate",
      "type": "event"
    },
    {
      "anonymous": false,
      "inputs": [
        {
          "indexed": true,
          "internalType": "address",
          "name": "from",
          "type": "address"
        },
        {
          "indexed": true,
          "internalType": "address",
          "name": "to",
          "type": "address"
        },
        {
          "indexed": true,
          "internalType": "uint256",
          "name": "tokenId",
          "type": "uint256"
        }
      ],
      "name": "Transfer",
      "type": "event"
    },
    {
      "inputs": [
        {
          "internalType": "address",
          "name": "to",
          "type": "address"
        },
        {
          "internalType": "uint256",
          "name": "tokenId",
          "type": "uint256"
        }
      ],
      "name": "approve",
      "outputs": [],
      "stateMutability": "nonpayable",
      "type": "function"
    },
    {
      "inputs": [
        {
          "internalType": "address",
          "name": "owner",
          "type": "address"
        }
      ],
      "name": "balanceOf",
      "outputs": [
        {
          "internalType": "uint256",
          "name": "",
          "type": "uint256"
        }
      ],
      "stateMutability": "view",
      "type": "function"
    },
    {
      "inputs": [
        {
          "internalType": "uint256",
          "name": "tokenId",
          "type": "uint256"
        }
      ],
      "name": "getApproved",
      "outputs": [
        {
          "internalType": "address",
          "name": "",
          "type": "address"
        }
      ],
      "stateMutability": "view",
      "type": "function"
    },
    {
      "inputs": [
        {
          "internalType": "address",
          "name": "owner",
          "type": "address"
        },
        {
          "internalType": "address",
          "name": "operator",
          "type": "address"
        }
      ],
      "name": "isApprovedForAll",
      "outputs": [
        {
          "internalType": "bool",
          "name": "",
          "type": "bool"
        }
      ],
      "stateMutability": "view",
      "type": "function"
    },
    {
      "inputs": [
        {
          "internalType": "string",
          "name": "metadataURI",
          "type": "string"
        }
      ],
      "name": "mintEBook",
      "outputs": [],
      "stateMutability": "nonpayable",
      "type": "function"
    },
    {
      "inputs": [],
      "name": "name",
      "outputs": [
        {
          "internalType": "string",
          "name": "",
          "type": "string"
        }
      ],
      "stateMutability": "view",
      "type": "function"
    },
    {
      "inputs": [],
      "name": "nextTokenId",
      "outputs": [
        {
          "internalType": "uint256",
          "name": "",
          "type": "uint256"
        }
      ],
      "stateMutability": "view",
      "type": "function"
    },
    {
      "inputs": [
        {
          "internalType": "uint256",
          "name": "tokenId",
          "type": "uint256"
        }
      ],
      "name": "ownerOf",
      "outputs": [
        {
          "internalType": "address",
          "name": "",
          "type": "address"
        }
      ],
      "stateMutability": "view",
      "type": "function"
    },
    {
      "inputs": [
        {
          "internalType": "address",
          "name": "from",
          "type": "address"
        },
        {
          "internalType": "address",
          "name": "to",
          "type": "address"
        },
        {
          "internalType": "uint256",
          "name": "tokenId",
          "type": "uint256"
        }
      ],
      "name": "safeTransferFrom",
      "outputs": [],
      "stateMutability": "nonpayable",
      "type": "function"
    },
    {
      "inputs": [
        {
          "internalType": "address",
          "name": "from",
          "type": "address"
        },
        {
          "internalType": "address",
          "name": "to",
          "type": "address"
        },
        {
          "internalType": "uint256",
          "name": "tokenId",
          "type": "uint256"
        },
        {
          "internalType": "bytes",
          "name": "data",
          "type": "bytes"
        }
      ],
      "name": "safeTransferFrom",
      "outputs": [],
      "stateMutability": "nonpayable",
      "type": "function"
    },
    {
      "inputs": [
        {
          "internalType": "address",
          "name": "operator",
          "type": "address"
        },
        {
          "internalType": "bool",
          "name": "approved",
          "type": "bool"
        }
      ],
      "name": "setApprovalForAll",
      "outputs": [],
      "stateMutability": "nonpayable",
      "type": "function"
    },
    {
      "inputs": [
        {
          "internalType": "bytes4",
          "name": "interfaceId",
          "type": "bytes4"
        }
      ],
      "name": "supportsInterface",
      "outputs": [
        {
          "internalType": "bool",
          "name": "",
          "type": "bool"
        }
      ],
      "stateMutability": "view",
      "type": "function"
    },
    {
      "inputs": [],
      "name": "symbol",
      "outputs": [
        {
          "internalType": "string",
          "name": "",
          "type": "string"
        }
      ],
      "stateMutability": "view",
      "type": "function"
    },
    {
      "inputs": [
        {
          "internalType": "uint256",
          "name": "tokenId",
          "type": "uint256"
        }
      ],
      "name": "tokenURI",
      "outputs": [
        {
          "internalType": "string",
          "name": "",
          "type": "string"
        }
      ],
      "stateMutability": "view",
      "type": "function"
    },
    {
      "inputs": [
        {
          "internalType": "address",
          "name": "from",
          "type": "address"
        },
        {
          "internalType": "address",
          "name": "to",
          "type": "address"
        },
        {
          "internalType": "uint256",
          "name": "tokenId",
          "type": "uint256"
        }
      ],
      "name": "transferFrom",
      "outputs": [],
      "stateMutability": "nonpayable",
      "type": "function"
    }
  ],
  "bytecode": "0x608060405234801561000f575f5ffd5b506040518060400160405280600e81526020016d456c6d6572426f6f6b53746f726560901b8152506040518060400160405280600581526020016445424f4f4b60d81b815250815f90816100639190610110565b5060016100708282610110565b5050506101ca565b634e487b7160e01b5f52604160045260245ffd5b600181811c908216806100a057607f821691505b6020821081036100be57634e487b7160e01b5f52602260045260245ffd5b50919050565b601f82111561010b57805f5260205f20601f840160051c810160208510156100e95750805b601f840160051c820191505b81811015610108575f81556001016100f5565b50505b505050565b81516001600160401b0381111561012957610129610078565b61013d81610137845461008c565b846100c4565b6020601f82116001811461016f575f83156101585750848201515b5f19600385901b1c1916600184901b178455610108565b5f84815260208120601f198516915b8281101561019e578785015182556020948501946001909201910161017e565b50848210156101bb57868401515f19600387901b60f8161c191681555b50505050600190811b01905550565b611319806101d75f395ff3fe608060405234801561000f575f5ffd5b50600436106100f0575f3560e01c80636352211e11610093578063a22cb46511610063578063a22cb465146101ef578063b88d4fde14610202578063c87b56dd14610215578063e985e9c514610228575f5ffd5b80636352211e146101aa57806370a08231146101bd57806375794a3c146101de57806395d89b41146101e7575f5ffd5b8063095ea7b3116100ce578063095ea7b31461015c57806323b872dd146101715780633b33689e1461018457806342842e0e14610197575f5ffd5b806301ffc9a7146100f457806306fdde031461011c578063081812fc14610131575b5f5ffd5b610107610102366004610e59565b61023b565b60405190151581526020015b60405180910390f35b610124610265565b6040516101139190610ea2565b61014461013f366004610eb4565b6102f4565b6040516001600160a01b039091168152602001610113565b61016f61016a366004610ee6565b61031b565b005b61016f61017f366004610f0e565b61032a565b61016f610192366004610f48565b6103b8565b61016f6101a5366004610f0e565b61045e565b6101446101b8366004610eb4565b61047d565b6101d06101cb366004610fb6565b610487565b604051908152602001610113565b6101d060075481565b6101246104cc565b61016f6101fd366004610fcf565b6104db565b61016f61021036600461101c565b6104e6565b610124610223366004610eb4565b6104fe565b6101076102363660046110f9565b61057f565b5f6001600160e01b03198216632483248360e11b148061025f575061025f826105ac565b92915050565b60605f80546102739061112a565b80601f016020809104026020016040519081016040528092919081815260200182805461029f9061112a565b80156102ea5780601f106102c1576101008083540402835291602001916102ea565b820191905f5260205f20905b8154815290600101906020018083116102cd57829003601f168201915b5050505050905090565b5f6102fe826105fb565b505f828152600460205260409020546001600160a01b031661025f565b610326828233610633565b5050565b6001600160a01b03821661035857604051633250574960e11b81525f60048201526024015b60405180910390fd5b5f610364838333610640565b9050836001600160a01b0316816001600160a01b0316146103b2576040516364283d7b60e01b81526001600160a01b038086166004830152602482018490528216604482015260640161034f565b50505050565b5f8190036103d95760405163128e0ec160e11b815260040160405180910390fd5b60078054600181019091556103ee3382610732565b61042d8184848080601f0160208091040260200160405190810160405280939291908181526020018383808284375f9201919091525061074b92505050565b604051339082907f7f8fe932f991712631678ee61d5f8307a2f645ec36663fb4ab7c372be680d228905f90a3505050565b61047883838360405180602001604052805f8152506104e6565b505050565b5f61025f826105fb565b5f6001600160a01b0382166104b1576040516322718ad960e21b81525f600482015260240161034f565b506001600160a01b03165f9081526003602052604090205490565b6060600180546102739061112a565b61032633838361079a565b6104f184848461032a565b6103b23385858585610861565b6060610509826105fb565b505f61051f60408051602081019091525f815290565b90505f61052b84610989565b905081515f0361053c579392505050565b80511561056e578181604051602001610556929190611179565b60405160208183030381529060405292505050919050565b61057784610a28565b949350505050565b6001600160a01b039182165f90815260056020908152604080832093909416825291909152205460ff1690565b5f6001600160e01b031982166380ac58cd60e01b14806105dc57506001600160e01b03198216635b5e139f60e01b145b8061025f57506301ffc9a760e01b6001600160e01b031983161461025f565b5f818152600260205260408120546001600160a01b03168061025f57604051637e27328960e01b81526004810184905260240161034f565b6104788383836001610a99565b5f828152600260205260408120546001600160a01b039081169083161561066c5761066c818486610b9d565b6001600160a01b038116156106a6576106875f855f5f610a99565b6001600160a01b0381165f90815260036020526040902080545f190190555b6001600160a01b038516156106d4576001600160a01b0385165f908152600360205260409020805460010190555b5f8481526002602052604080822080546001600160a01b0319166001600160a01b0389811691821790925591518793918516917fddf252ad1be2c89b69c2b068fc378daa952ba7f163c4a11628f55a4df523b3ef91a4949350505050565b610326828260405180602001604052805f815250610c01565b5f82815260066020526040902061076282826111d1565b506040518281527ff8e1a15aba9398e019f0b49df1a4fde98ee17ae345cb5f6b5e2c27f5033e8ce79060200160405180910390a15050565b6001600160a01b0383166107c35760405163a9fbf51f60e01b81525f600482015260240161034f565b6001600160a01b0382166107f557604051630b61174360e31b81526001600160a01b038316600482015260240161034f565b6001600160a01b038381165f81815260056020908152604080832094871680845294825291829020805460ff191686151590811790915591519182527f17307eab39ab6107e8899845ad3d59bd9653f200f220920489ca2b5937696c31910160405180910390a3505050565b6001600160a01b0383163b1561098257604051630a85bd0160e11b81526001600160a01b0384169063150b7a02906108a390889088908790879060040161128c565b6020604051808303815f875af19250505080156108dd575060408051601f3d908101601f191682019092526108da918101906112c8565b60015b610944573d80801561090a576040519150601f19603f3d011682016040523d82523d5f602084013e61090f565b606091505b5080515f0361093c57604051633250574960e11b81526001600160a01b038516600482015260240161034f565b805160208201fd5b6001600160e01b03198116630a85bd0160e11b1461098057604051633250574960e11b81526001600160a01b038516600482015260240161034f565b505b5050505050565b5f8181526006602052604090208054606091906109a59061112a565b80601f01602080910402602001604051908101604052809291908181526020018280546109d19061112a565b8015610a1c5780601f106109f357610100808354040283529160200191610a1c565b820191905f5260205f20905b8154815290600101906020018083116109ff57829003601f168201915b50505050509050919050565b6060610a33826105fb565b505f610a4960408051602081019091525f815290565b90505f815111610a675760405180602001604052805f815250610a92565b80610a7184610c18565b604051602001610a82929190611179565b6040516020818303038152906040525b9392505050565b8080610aad57506001600160a01b03821615155b15610b6e575f610abc846105fb565b90506001600160a01b03831615801590610ae85750826001600160a01b0316816001600160a01b031614155b8015610afb5750610af9818461057f565b155b15610b245760405163a9fbf51f60e01b81526001600160a01b038416600482015260240161034f565b8115610b6c5783856001600160a01b0316826001600160a01b03167f8c5be1e5ebec7d5bd14f71427d1e84f3dd0314c0f7b2291e5b200ac8c7c3b92560405160405180910390a45b505b50505f90815260046020526040902080546001600160a01b0319166001600160a01b0392909216919091179055565b610ba8838383610ca8565b610478576001600160a01b038316610bd657604051637e27328960e01b81526004810182905260240161034f565b60405163177e802f60e01b81526001600160a01b03831660048201526024810182905260440161034f565b610c0b8383610d09565b610478335f858585610861565b60605f610c2483610d6a565b60010190505f8167ffffffffffffffff811115610c4357610c43611008565b6040519080825280601f01601f191660200182016040528015610c6d576020820181803683370190505b5090508181016020015b5f19016f181899199a1a9b1b9c1cb0b131b232b360811b600a86061a8153600a8504945084610c7757509392505050565b5f6001600160a01b038316158015906105775750826001600160a01b0316846001600160a01b03161480610ce15750610ce1848461057f565b806105775750505f908152600460205260409020546001600160a01b03908116911614919050565b6001600160a01b038216610d3257604051633250574960e11b81525f600482015260240161034f565b5f610d3e83835f610640565b90506001600160a01b03811615610478576040516339e3563760e11b81525f600482015260240161034f565b5f8072184f03e93ff9f4daa797ed6e38ed64bf6a1f0160401b8310610da85772184f03e93ff9f4daa797ed6e38ed64bf6a1f0160401b830492506040015b6d04ee2d6d415b85acef81000000008310610dd4576d04ee2d6d415b85acef8100000000830492506020015b662386f26fc100008310610df257662386f26fc10000830492506010015b6305f5e1008310610e0a576305f5e100830492506008015b6127108310610e1e57612710830492506004015b60648310610e30576064830492506002015b600a831061025f5760010192915050565b6001600160e01b031981168114610e56575f5ffd5b50565b5f60208284031215610e69575f5ffd5b8135610a9281610e41565b5f81518084528060208401602086015e5f602082860101526020601f19601f83011685010191505092915050565b602081525f610a926020830184610e74565b5f60208284031215610ec4575f5ffd5b5035919050565b80356001600160a01b0381168114610ee1575f5ffd5b919050565b5f5f60408385031215610ef7575f5ffd5b610f0083610ecb565b946020939093013593505050565b5f5f5f60608486031215610f20575f5ffd5b610f2984610ecb565b9250610f3760208501610ecb565b929592945050506040919091013590565b5f5f60208385031215610f59575f5ffd5b823567ffffffffffffffff811115610f6f575f5ffd5b8301601f81018513610f7f575f5ffd5b803567ffffffffffffffff811115610f95575f5ffd5b856020828401011115610fa6575f5ffd5b6020919091019590945092505050565b5f60208284031215610fc6575f5ffd5b610a9282610ecb565b5f5f60408385031215610fe0575f5ffd5b610fe983610ecb565b915060208301358015158114610ffd575f5ffd5b809150509250929050565b634e487b7160e01b5f52604160045260245ffd5b5f5f5f5f6080858703121561102f575f5ffd5b61103885610ecb565b935061104660208601610ecb565b925060408501359150606085013567ffffffffffffffff811115611068575f5ffd5b8501601f81018713611078575f5ffd5b803567ffffffffffffffff81111561109257611092611008565b604051601f8201601f19908116603f0116810167ffffffffffffffff811182821017156110c1576110c1611008565b6040528181528282016020018910156110d8575f5ffd5b816020840160208301375f6020838301015280935050505092959194509250565b5f5f6040838503121561110a575f5ffd5b61111383610ecb565b915061112160208401610ecb565b90509250929050565b600181811c9082168061113e57607f821691505b60208210810361115c57634e487b7160e01b5f52602260045260245ffd5b50919050565b5f81518060208401855e5f93019283525090919050565b5f6105776111878386611162565b84611162565b601f82111561047857805f5260205f20601f840160051c810160208510156111b25750805b601f840160051c820191505b81811015610982575f81556001016111be565b815167ffffffffffffffff8111156111eb576111eb611008565b6111ff816111f9845461112a565b8461118d565b6020601f821160018114611231575f831561121a5750848201515b5f19600385901b1c1916600184901b178455610982565b5f84815260208120601f198516915b828110156112605787850151825560209485019460019092019101611240565b508482101561127d57868401515f19600387901b60f8161c191681555b50505050600190811b01905550565b6001600160a01b03858116825284166020820152604081018390526080606082018190525f906112be90830184610e74565b9695505050505050565b5f602082840312156112d8575f5ffd5b8151610a9281610e4156fea2646970667358221220225b17c4105abd2c51881f1de1ef97fe68141cb659441e7c74e0e521fde3bfb964736f6c634300081c0033",
  "linkReferences": {},
  "deployedLinkReferences": {},
  "immutableReferences": {},
  "inputSourceName": "project/contracts/BookStoreNFT.sol",
  "buildInfoId": "solc-0_8_28-688b4e2cf79795f57bd7de3469537d148affa0ee"
}