{
  "_format": "hh3-artifact-1",
  "contractName": "BookStoreNFT",
  "sourceName": "contracts/BookStoreNFT.sol",
  "abi": [
    {
      "inputs": [],
      "stateMutability": "nonpayable",
      "type": "constructor"
    },
    {
      "inputs": [
        {
          "internalType": "address",
          "name": "sender",
          "type": "address"
        },
        {
          "internalType": "uint256",
          "name": "tokenId",
          "type": "uint256"
        },
        {
          "internalType": "address",
          "name": "owner",
          "type": "address"
        }
      ],
      "name": "ERC721IncorrectOwner",
      "type": "error"
    },
    {
      "inputs": [
        {
          "internalType": "address",
          "name": "operator",
          "type": "address"
        },
        {
          "internalType": "uint256",
          "name": "tokenId",
          "type": "uint256"
        }
      ],
      "name": "ERC721InsufficientApproval",
      "type": "error"
    },
    {
      "inputs": [
        {
          "internalType": "address",
          "name": "approver",
          "type": "address"
        }
      ],
      "name": "ERC721InvalidApprover",
      "type": "error"
    },
    {
      "inputs": [
        {
          "internalType": "address",
          "name": "operator",
          "type": "address"
        }
      ],
      "name": "ERC721InvalidOperator",
      "type": "error"
    },
    {
      "inputs": [
        {
          "internalType": "address",
          "name": "owner",
          "type": "address"
        }
      ],
      "name": "ERC721InvalidOwner",
      "type": "error"
    },
    {
      "inputs": [
        {
          "internalType": "address",
          "name": "receiver",
          "type": "address"
        }
      ],
      "name": "ERC721InvalidReceiver",
      "type": "error"
    },
    {
      "inputs": [
        {
          "internalType": "address",
          "name": "sender",
          "type": "address"
        }
      ],
      "name": "ERC721InvalidSender",
      "type": "error"
    },
    {
      "inputs": [
        {
          "internalType": "uint256",
          "name": "tokenId",
          "type": "uint256"
        }
      ],
      "name": "ERC721NonexistentToken",
      "type": "error"
    },
    {
      "inputs": [
        {
          "internalType": "address",
          "name": "owner",
          "type": "address"
        }
      ],
      "name": "OwnableInvalidOwner",
      "type": "error"
    },
    {
      "inputs": [
        {
          "internalType": "address",
          "name": "account",
          "type": "address"
        }
      ],
      "name": "OwnableUnauthorizedAccount",
      "type": "error"
    },
    {
      "inputs": [],
      "name": "ReentrancyGuardReentrantCall",
      "type": "error"
    },
    {
      "anonymous": false,
      "inputs": [
        {
          "indexed": true,
          "internalType": "address",
          "name": "owner",
          "type": "address"
        },
        {
          "indexed": true,
          "internalType": "address",
          "name": "approved",
          "type": "address"
        },
        {
          "indexed": true,
          "internalType": "uint256",
          "name": "tokenId",
          "type": "uint256"
        }
      ],
      "name": "Approval",
      "type": "event"
    },
    {
      "anonymous": false,
      "inputs": [
        {
          "indexed": true,
          "internalType": "address",
          "name": "owner",
          "type": "address"
        },
        {
          "indexed": true,
          "internalType": "address",
          "name": "operator",
          "type": "address"
        },
        {
          "indexed": false,
          "internalType": "bool",
          "name": "approved",
          "type": "bool"
        }
      ],
      "name": "ApprovalForAll",
      "type": "event"
    },
    {
      "anonymous": false,
      "inputs": [
        {
          "indexed": false,
          "internalType": "uint256",
          "name": "_fromTokenId",
          "type": "uint256"
        },
        {
          "indexed": false,
          "internalType": "uint256",
          "name": "_toTokenId",
          "type": "uint256"
        }
      ],
      "name": "BatchMetadataUpdate",
      "type": "event"
    },
    {
      "anonymous": false,
      "inputs": [
        {
          "indexed": true,
          "internalType": "uint256",
          "name": "nextTokenId",
          "type": "uint256"
        },
        {
          "indexed": true,
          "internalType": "address",
          "name": "author",
          "type": "address"
        },
        {
          "indexed": false,
          "internalType": "string",
          "name": "metadataURI",
          "type": "string"
        }
      ],
      "name": "EBookMinted",
      "type": "event"
    },
    {
      "anonymous": false,
      "inputs": [
        {
          "indexed": false,
          "internalType": "uint256",
          "name": "_tokenId",
          "type": "uint256"
        }
      ],
      "name": "MetadataUpdate",
      "type": "event"
    },
    {
      "anonymous": false,
      "inputs": [
        {
          "indexed": true,
          "internalType": "address",
          "name": "previousOwner",
          "type": "address"
        },
        {
          "indexed": true,
          "internalType": "address",
          "name": "newOwner",
          "type": "address"
        }
      ],
      "name": "OwnershipTransferred",
      "type": "event"
    },
    {
      "anonymous": false,
      "inputs": [
        {
          "indexed": true,
          "internalType": "address",
          "name": "from",
          "type": "address"
        },
        {
          "indexed": true,
          "internalType": "address",
          "name": "to",
          "type": "address"
        },
        {
          "indexed": true,
          "internalType": "uint256",
          "name": "tokenId",
          "type": "uint256"
        }
      ],
      "name": "Transfer",
      "type": "event"
    },
    {
      "inputs": [
        {
          "internalType": "address",
          "name": "to",
          "type": "address"
        },
        {
          "internalType": "uint256",
          "name": "tokenId",
          "type": "uint256"
        }
      ],
      "name": "approve",
      "outputs": [],
      "stateMutability": "nonpayable",
      "type": "function"
    },
    {
      "inputs": [
        {
          "internalType": "address",
          "name": "owner",
          "type": "address"
        }
      ],
      "name": "balanceOf",
      "outputs": [
        {
          "internalType": "uint256",
          "name": "",
          "type": "uint256"
        }
      ],
      "stateMutability": "view",
      "type": "function"
    },
    {
      "inputs": [
        {
          "internalType": "uint256",
          "name": "tokenId",
          "type": "uint256"
        }
      ],
      "name": "getApproved",
      "outputs": [
        {
          "internalType": "address",
          "name": "",
          "type": "address"
        }
      ],
      "stateMutability": "view",
      "type": "function"
    },
    {
      "inputs": [
        {
          "internalType": "address",
          "name": "owner",
          "type": "address"
        },
        {
          "internalType": "address",
          "name": "operator",
          "type": "address"
        }
      ],
      "name": "isApprovedForAll",
      "outputs": [
        {
          "internalType": "bool",
          "name": "",
          "type": "bool"
        }
      ],
      "stateMutability": "view",
      "type": "function"
    },
    {
      "inputs": [
        {
          "internalType": "string",
          "name": "_metadataURI",
          "type": "string"
        }
      ],
      "name": "mintEBook",
      "outputs": [],
      "stateMutability": "nonpayable",
      "type": "function"
    },
    {
      "inputs": [],
      "name": "name",
      "outputs": [
        {
          "internalType": "string",
          "name": "",
          "type": "string"
        }
      ],
      "stateMutability": "view",
      "type": "function"
    },
    {
      "inputs": [],
      "name": "nextTokenId",
      "outputs": [
        {
          "internalType": "uint256",
          "name": "",
          "type": "uint256"
        }
      ],
      "stateMutability": "view",
      "type": "function"
    },
    {
      "inputs": [],
      "name": "owner",
      "outputs": [
        {
          "internalType": "address",
          "name": "",
          "type": "address"
        }
      ],
      "stateMutability": "view",
      "type": "function"
    },
    {
      "inputs": [
        {
          "internalType": "uint256",
          "name": "tokenId",
          "type": "uint256"
        }
      ],
      "name": "ownerOf",
      "outputs": [
        {
          "internalType": "address",
          "name": "",
          "type": "address"
        }
      ],
      "stateMutability": "view",
      "type": "function"
    },
    {
      "inputs": [],
      "name": "renounceOwnership",
      "outputs": [],
      "stateMutability": "nonpayable",
      "type": "function"
    },
    {
      "inputs": [
        {
          "internalType": "address",
          "name": "from",
          "type": "address"
        },
        {
          "internalType": "address",
          "name": "to",
          "type": "address"
        },
        {
          "internalType": "uint256",
          "name": "tokenId",
          "type": "uint256"
        }
      ],
      "name": "safeTransferFrom",
      "outputs": [],
      "stateMutability": "nonpayable",
      "type": "function"
    },
    {
      "inputs": [
        {
          "internalType": "address",
          "name": "from",
          "type": "address"
        },
        {
          "internalType": "address",
          "name": "to",
          "type": "address"
        },
        {
          "internalType": "uint256",
          "name": "tokenId",
          "type": "uint256"
        },
        {
          "internalType": "bytes",
          "name": "data",
          "type": "bytes"
        }
      ],
      "name": "safeTransferFrom",
      "outputs": [],
      "stateMutability": "nonpayable",
      "type": "function"
    },
    {
      "inputs": [
        {
          "internalType": "address",
          "name": "operator",
          "type": "address"
        },
        {
          "internalType": "bool",
          "name": "approved",
          "type": "bool"
        }
      ],
      "name": "setApprovalForAll",
      "outputs": [],
      "stateMutability": "nonpayable",
      "type": "function"
    },
    {
      "inputs": [
        {
          "internalType": "bytes4",
          "name": "interfaceId",
          "type": "bytes4"
        }
      ],
      "name": "supportsInterface",
      "outputs": [
        {
          "internalType": "bool",
          "name": "",
          "type": "bool"
        }
      ],
      "stateMutability": "view",
      "type": "function"
    },
    {
      "inputs": [],
      "name": "symbol",
      "outputs": [
        {
          "internalType": "string",
          "name": "",
          "type": "string"
        }
      ],
      "stateMutability": "view",
      "type": "function"
    },
    {
      "inputs": [
        {
          "internalType": "uint256",
          "name": "tokenId",
          "type": "uint256"
        }
      ],
      "name": "tokenURI",
      "outputs": [
        {
          "internalType": "string",
          "name": "",
          "type": "string"
        }
      ],
      "stateMutability": "view",
      "type": "function"
    },
    {
      "inputs": [
        {
          "internalType": "address",
          "name": "from",
          "type": "address"
        },
        {
          "internalType": "address",
          "name": "to",
          "type": "address"
        },
        {
          "internalType": "uint256",
          "name": "tokenId",
          "type": "uint256"
        }
      ],
      "name": "transferFrom",
      "outputs": [],
      "stateMutability": "nonpayable",
      "type": "function"
    },
    {
      "inputs": [
        {
          "internalType": "address",
          "name": "newOwner",
          "type": "address"
        }
      ],
      "name": "transferOwnership",
      "outputs": [],
      "stateMutability": "nonpayable",
      "type": "function"
    }
  ],
  "bytecode": "0x608060405234801561000f575f5ffd5b50336040518060400160405280600e81526020016d456c6d6572426f6f6b53746f726560901b8152506040518060400160405280600581526020016445424f4f4b60d81b815250815f908161006491906101bd565b50600161007182826101bd565b5050506001600160a01b0381166100a157604051631e4fbdf760e01b81525f600482015260240160405180910390fd5b6100aa816100d4565b5060017f9b779b17422d0df92223018b32b4d1fa46e071723d6817e2486d003becc55f0055610277565b600780546001600160a01b038381166001600160a01b0319831681179093556040519116919082907f8be0079c531659141344cd1fd0a4f28419497f9722a3daafe3b4186f6b6457e0905f90a35050565b634e487b7160e01b5f52604160045260245ffd5b600181811c9082168061014d57607f821691505b60208210810361016b57634e487b7160e01b5f52602260045260245ffd5b50919050565b601f8211156101b857805f5260205f20601f840160051c810160208510156101965750805b601f840160051c820191505b818110156101b5575f81556001016101a2565b50505b505050565b81516001600160401b038111156101d6576101d6610125565b6101ea816101e48454610139565b84610171565b6020601f82116001811461021c575f83156102055750848201515b5f19600385901b1c1916600184901b1784556101b5565b5f84815260208120601f198516915b8281101561024b578785015182556020948501946001909201910161022b565b508482101561026857868401515f19600387901b60f8161c191681555b50505050600190811b01905550565b6114f3806102845f395ff3fe608060405234801561000f575f5ffd5b5060043610610111575f3560e01c8063715018a61161009e578063a22cb4651161006e578063a22cb46514610229578063b88d4fde1461023c578063c87b56dd1461024f578063e985e9c514610262578063f2fde38b14610275575f5ffd5b8063715018a6146101ff57806375794a3c146102075780638da5cb5b1461021057806395d89b4114610221575f5ffd5b806323b872dd116100e457806323b872dd146101925780633b33689e146101a557806342842e0e146101b85780636352211e146101cb57806370a08231146101de575f5ffd5b806301ffc9a71461011557806306fdde031461013d578063081812fc14610152578063095ea7b31461017d575b5f5ffd5b610128610123366004611005565b610288565b60405190151581526020015b60405180910390f35b6101456102b2565b604051610134919061104e565b610165610160366004611060565b610341565b6040516001600160a01b039091168152602001610134565b61019061018b366004611092565b610368565b005b6101906101a03660046110ba565b610377565b6101906101b33660046110f4565b610405565b6101906101c63660046110ba565b6104cf565b6101656101d9366004611060565b6104ee565b6101f16101ec366004611162565b6104f8565b604051908152602001610134565b61019061053d565b6101f160085481565b6007546001600160a01b0316610165565b610145610550565b61019061023736600461117b565b61055f565b61019061024a3660046111c8565b61056a565b61014561025d366004611060565b610582565b6101286102703660046112a5565b610603565b610190610283366004611162565b610630565b5f6001600160e01b03198216632483248360e11b14806102ac57506102ac8261066d565b92915050565b60605f80546102c0906112d6565b80601f01602080910402602001604051908101604052809291908181526020018280546102ec906112d6565b80156103375780601f1061030e57610100808354040283529160200191610337565b820191905f5260205f20905b81548152906001019060200180831161031a57829003601f168201915b5050505050905090565b5f61034b826106bc565b505f828152600460205260409020546001600160a01b03166102ac565b6103738282336106f4565b5050565b6001600160a01b0382166103a557604051633250574960e11b81525f60048201526024015b60405180910390fd5b5f6103b1838333610701565b9050836001600160a01b0316816001600160a01b0316146103ff576040516364283d7b60e01b81526001600160a01b038086166004830152602482018490528216604482015260640161039c565b50505050565b61040d6107f3565b60088054600181019091556104223382610821565b6104618184848080601f0160208091040260200160405190810160405280939291908181526020018383808284375f9201919091525061083a92505050565b336001600160a01b0316817f16076a729f51c9a95d431cd32b764f4e24020dc749724d675499c6a7af39f6d3858560405161049d92919061130e565b60405180910390a35061037360017f9b779b17422d0df92223018b32b4d1fa46e071723d6817e2486d003becc55f0055565b6104e983838360405180602001604052805f81525061056a565b505050565b5f6102ac826106bc565b5f6001600160a01b038216610522576040516322718ad960e21b81525f600482015260240161039c565b506001600160a01b03165f9081526003602052604090205490565b610545610889565b61054e5f6108b6565b565b6060600180546102c0906112d6565b610373338383610907565b610575848484610377565b6103ff33858585856109ce565b606061058d826106bc565b505f6105a360408051602081019091525f815290565b90505f6105af84610af6565b905081515f036105c0579392505050565b8051156105f25781816040516020016105da929190611353565b60405160208183030381529060405292505050919050565b6105fb84610b95565b949350505050565b6001600160a01b039182165f90815260056020908152604080832093909416825291909152205460ff1690565b610638610889565b6001600160a01b03811661066157604051631e4fbdf760e01b81525f600482015260240161039c565b61066a816108b6565b50565b5f6001600160e01b031982166380ac58cd60e01b148061069d57506001600160e01b03198216635b5e139f60e01b145b806102ac57506301ffc9a760e01b6001600160e01b03198316146102ac565b5f818152600260205260408120546001600160a01b0316806102ac57604051637e27328960e01b81526004810184905260240161039c565b6104e98383836001610c06565b5f828152600260205260408120546001600160a01b039081169083161561072d5761072d818486610d0a565b6001600160a01b03811615610767576107485f855f5f610c06565b6001600160a01b0381165f90815260036020526040902080545f190190555b6001600160a01b03851615610795576001600160a01b0385165f908152600360205260409020805460010190555b5f8481526002602052604080822080546001600160a01b0319166001600160a01b0389811691821790925591518793918516917fddf252ad1be2c89b69c2b068fc378daa952ba7f163c4a11628f55a4df523b3ef91a4949350505050565b6107fb610d6e565b60027f9b779b17422d0df92223018b32b4d1fa46e071723d6817e2486d003becc55f0055565b610373828260405180602001604052805f815250610db0565b5f82815260066020526040902061085182826113ab565b506040518281527ff8e1a15aba9398e019f0b49df1a4fde98ee17ae345cb5f6b5e2c27f5033e8ce79060200160405180910390a15050565b6007546001600160a01b0316331461054e5760405163118cdaa760e01b815233600482015260240161039c565b600780546001600160a01b038381166001600160a01b0319831681179093556040519116919082907f8be0079c531659141344cd1fd0a4f28419497f9722a3daafe3b4186f6b6457e0905f90a35050565b6001600160a01b0383166109305760405163a9fbf51f60e01b81525f600482015260240161039c565b6001600160a01b03821661096257604051630b61174360e31b81526001600160a01b038316600482015260240161039c565b6001600160a01b038381165f81815260056020908152604080832094871680845294825291829020805460ff191686151590811790915591519182527f17307eab39ab6107e8899845ad3d59bd9653f200f220920489ca2b5937696c31910160405180910390a3505050565b6001600160a01b0383163b15610aef57604051630a85bd0160e11b81526001600160a01b0384169063150b7a0290610a10908890889087908790600401611466565b6020604051808303815f875af1925050508015610a4a575060408051601f3d908101601f19168201909252610a47918101906114a2565b60015b610ab1573d808015610a77576040519150601f19603f3d011682016040523d82523d5f602084013e610a7c565b606091505b5080515f03610aa957604051633250574960e11b81526001600160a01b038516600482015260240161039c565b805160208201fd5b6001600160e01b03198116630a85bd0160e11b14610aed57604051633250574960e11b81526001600160a01b038516600482015260240161039c565b505b5050505050565b5f818152600660205260409020805460609190610b12906112d6565b80601f0160208091040260200160405190810160405280929190818152602001828054610b3e906112d6565b8015610b895780601f10610b6057610100808354040283529160200191610b89565b820191905f5260205f20905b815481529060010190602001808311610b6c57829003601f168201915b50505050509050919050565b6060610ba0826106bc565b505f610bb660408051602081019091525f815290565b90505f815111610bd45760405180602001604052805f815250610bff565b80610bde84610dc7565b604051602001610bef929190611353565b6040516020818303038152906040525b9392505050565b8080610c1a57506001600160a01b03821615155b15610cdb575f610c29846106bc565b90506001600160a01b03831615801590610c555750826001600160a01b0316816001600160a01b031614155b8015610c685750610c668184610603565b155b15610c915760405163a9fbf51f60e01b81526001600160a01b038416600482015260240161039c565b8115610cd95783856001600160a01b0316826001600160a01b03167f8c5be1e5ebec7d5bd14f71427d1e84f3dd0314c0f7b2291e5b200ac8c7c3b92560405160405180910390a45b505b50505f90815260046020526040902080546001600160a01b0319166001600160a01b0392909216919091179055565b610d15838383610e57565b6104e9576001600160a01b038316610d4357604051637e27328960e01b81526004810182905260240161039c565b60405163177e802f60e01b81526001600160a01b03831660048201526024810182905260440161039c565b7f9b779b17422d0df92223018b32b4d1fa46e071723d6817e2486d003becc55f005460020361054e57604051633ee5aeb560e01b815260040160405180910390fd5b610dba8383610eb8565b6104e9335f8585856109ce565b60605f610dd383610f19565b60010190505f8167ffffffffffffffff811115610df257610df26111b4565b6040519080825280601f01601f191660200182016040528015610e1c576020820181803683370190505b5090508181016020015b5f19016f181899199a1a9b1b9c1cb0b131b232b360811b600a86061a8153600a8504945084610e2657509392505050565b5f6001600160a01b038316158015906105fb5750826001600160a01b0316846001600160a01b03161480610e905750610e908484610603565b806105fb5750505f908152600460205260409020546001600160a01b03908116911614919050565b6001600160a01b038216610ee157604051633250574960e11b81525f600482015260240161039c565b5f610eed83835f610701565b90506001600160a01b038116156104e9576040516339e3563760e11b81525f600482015260240161039c565b5f8072184f03e93ff9f4daa797ed6e38ed64bf6a1f0160401b8310610f575772184f03e93ff9f4daa797ed6e38ed64bf6a1f0160401b830492506040015b6d04ee2d6d415b85acef81000000008310610f83576d04ee2d6d415b85acef8100000000830492506020015b662386f26fc100008310610fa157662386f26fc10000830492506010015b6305f5e1008310610fb9576305f5e100830492506008015b6127108310610fcd57612710830492506004015b60648310610fdf576064830492506002015b600a83106102ac5760010192915050565b6001600160e01b03198116811461066a575f5ffd5b5f60208284031215611015575f5ffd5b8135610bff81610ff0565b5f81518084528060208401602086015e5f602082860101526020601f19601f83011685010191505092915050565b602081525f610bff6020830184611020565b5f60208284031215611070575f5ffd5b5035919050565b80356001600160a01b038116811461108d575f5ffd5b919050565b5f5f604083850312156110a3575f5ffd5b6110ac83611077565b946020939093013593505050565b5f5f5f606084860312156110cc575f5ffd5b6110d584611077565b92506110e360208501611077565b929592945050506040919091013590565b5f5f60208385031215611105575f5ffd5b823567ffffffffffffffff81111561111b575f5ffd5b8301601f8101851361112b575f5ffd5b803567ffffffffffffffff811115611141575f5ffd5b856020828401011115611152575f5ffd5b6020919091019590945092505050565b5f60208284031215611172575f5ffd5b610bff82611077565b5f5f6040838503121561118c575f5ffd5b61119583611077565b9150602083013580151581146111a9575f5ffd5b809150509250929050565b634e487b7160e01b5f52604160045260245ffd5b5f5f5f5f608085870312156111db575f5ffd5b6111e485611077565b93506111f260208601611077565b925060408501359150606085013567ffffffffffffffff811115611214575f5ffd5b8501601f81018713611224575f5ffd5b803567ffffffffffffffff81111561123e5761123e6111b4565b604051601f8201601f19908116603f0116810167ffffffffffffffff8111828210171561126d5761126d6111b4565b604052818152828201602001891015611284575f5ffd5b816020840160208301375f6020838301015280935050505092959194509250565b5f5f604083850312156112b6575f5ffd5b6112bf83611077565b91506112cd60208401611077565b90509250929050565b600181811c908216806112ea57607f821691505b60208210810361130857634e487b7160e01b5f52602260045260245ffd5b50919050565b60208152816020820152818360408301375f818301604090810191909152601f909201601f19160101919050565b5f81518060208401855e5f93019283525090919050565b5f6105fb611361838661133c565b8461133c565b601f8211156104e957805f5260205f20601f840160051c8101602085101561138c5750805b601f840160051c820191505b81811015610aef575f8155600101611398565b815167ffffffffffffffff8111156113c5576113c56111b4565b6113d9816113d384546112d6565b84611367565b6020601f82116001811461140b575f83156113f45750848201515b5f19600385901b1c1916600184901b178455610aef565b5f84815260208120601f198516915b8281101561143a578785015182556020948501946001909201910161141a565b508482101561145757868401515f19600387901b60f8161c191681555b50505050600190811b01905550565b6001600160a01b03858116825284166020820152604081018390526080606082018190525f9061149890830184611020565b9695505050505050565b5f602082840312156114b2575f5ffd5b8151610bff81610ff056fea2646970667358221220b4afa14cd671ad6aa1487818cf991e4b5443feec6e756e96f062eed98171df4764736f6c634300081c0033",
  "linkReferences": {},
  "deployedLinkReferences": {},
  "immutableReferences": {},
  "inputSourceName": "project/contracts/BookStoreNFT.sol",
  "buildInfoId": "solc-0_8_28-1d9cb08df555cce06872ef1888cc5dece9fb22df"
}