{
  "_format": "hh3-artifact-1",
  "contractName": "BooksMarketplace",
  "sourceName": "contracts/BooksMarketplace.sol",
  "abi": [
    {
      "inputs": [],
      "stateMutability": "nonpayable",
      "type": "constructor"
    },
    {
      "inputs": [
        {
          "internalType": "address",
          "name": "owner",
          "type": "address"
        }
      ],
      "name": "OwnableInvalidOwner",
      "type": "error"
    },
    {
      "inputs": [
        {
          "internalType": "address",
          "name": "account",
          "type": "address"
        }
      ],
      "name": "OwnableUnauthorizedAccount",
      "type": "error"
    },
    {
      "inputs": [],
      "name": "ReentrancyGuardReentrantCall",
      "type": "error"
    },
    {
      "anonymous": false,
      "inputs": [
        {
          "indexed": true,
          "internalType": "address",
          "name": "nftContract",
          "type": "address"
        },
        {
          "indexed": true,
          "internalType": "uint256",
          "name": "tokenId",
          "type": "uint256"
        },
        {
          "indexed": true,
          "internalType": "address",
          "name": "seller",
          "type": "address"
        },
        {
          "indexed": false,
          "internalType": "uint256",
          "name": "price",
          "type": "uint256"
        }
      ],
      "name": "BookListed",
      "type": "event"
    },
    {
      "anonymous": false,
      "inputs": [
        {
          "indexed": true,
          "internalType": "address",
          "name": "nftContract",
          "type": "address"
        },
        {
          "indexed": true,
          "internalType": "uint256",
          "name": "tokenId",
          "type": "uint256"
        },
        {
          "indexed": true,
          "internalType": "address",
          "name": "buyer",
          "type": "address"
        },
        {
          "indexed": false,
          "internalType": "address",
          "name": "seller",
          "type": "address"
        },
        {
          "indexed": false,
          "internalType": "uint256",
          "name": "price",
          "type": "uint256"
        }
      ],
      "name": "BookSold",
      "type": "event"
    },
    {
      "anonymous": false,
      "inputs": [
        {
          "indexed": true,
          "internalType": "address",
          "name": "nftContract",
          "type": "address"
        },
        {
          "indexed": true,
          "internalType": "uint256",
          "name": "tokenId",
          "type": "uint256"
        },
        {
          "indexed": true,
          "internalType": "address",
          "name": "seller",
          "type": "address"
        }
      ],
      "name": "ListingCancelled",
      "type": "event"
    },
    {
      "anonymous": false,
      "inputs": [
        {
          "indexed": true,
          "internalType": "address",
          "name": "previousOwner",
          "type": "address"
        },
        {
          "indexed": true,
          "internalType": "address",
          "name": "newOwner",
          "type": "address"
        }
      ],
      "name": "OwnershipTransferred",
      "type": "event"
    },
    {
      "inputs": [
        {
          "internalType": "address",
          "name": "_nftContract",
          "type": "address"
        },
        {
          "internalType": "uint256",
          "name": "_tokenId",
          "type": "uint256"
        }
      ],
      "name": "buyBook",
      "outputs": [],
      "stateMutability": "payable",
      "type": "function"
    },
    {
      "inputs": [
        {
          "internalType": "address",
          "name": "_nftContract",
          "type": "address"
        },
        {
          "internalType": "uint256",
          "name": "_tokenId",
          "type": "uint256"
        }
      ],
      "name": "cancelListing",
      "outputs": [],
      "stateMutability": "nonpayable",
      "type": "function"
    },
    {
      "inputs": [
        {
          "internalType": "address",
          "name": "_nftContract",
          "type": "address"
        },
        {
          "internalType": "uint256",
          "name": "_tokenId",
          "type": "uint256"
        },
        {
          "internalType": "uint256",
          "name": "_price",
          "type": "uint256"
        }
      ],
      "name": "listBook",
      "outputs": [],
      "stateMutability": "nonpayable",
      "type": "function"
    },
    {
      "inputs": [
        {
          "internalType": "address",
          "name": "",
          "type": "address"
        },
        {
          "internalType": "uint256",
          "name": "",
          "type": "uint256"
        }
      ],
      "name": "listings",
      "outputs": [
        {
          "internalType": "uint256",
          "name": "price",
          "type": "uint256"
        },
        {
          "internalType": "address",
          "name": "seller",
          "type": "address"
        }
      ],
      "stateMutability": "view",
      "type": "function"
    },
    {
      "inputs": [],
      "name": "owner",
      "outputs": [
        {
          "internalType": "address",
          "name": "",
          "type": "address"
        }
      ],
      "stateMutability": "view",
      "type": "function"
    },
    {
      "inputs": [],
      "name": "renounceOwnership",
      "outputs": [],
      "stateMutability": "nonpayable",
      "type": "function"
    },
    {
      "inputs": [
        {
          "internalType": "address",
          "name": "newOwner",
          "type": "address"
        }
      ],
      "name": "transferOwnership",
      "outputs": [],
      "stateMutability": "nonpayable",
      "type": "function"
    }
  ],
  "bytecode": "0x6080604052348015600e575f5ffd5b5060017f9b779b17422d0df92223018b32b4d1fa46e071723d6817e2486d003becc55f00553380605757604051631e4fbdf760e01b81525f600482015260240160405180910390fd5b605e816063565b5060b2565b5f80546001600160a01b038381166001600160a01b0319831681178455604051919092169283917f8be0079c531659141344cd1fd0a4f28419497f9722a3daafe3b4186f6b6457e09190a35050565b610930806100bf5f395ff3fe60806040526004361061006d575f3560e01c80637e8ddbbb1161004c5780637e8ddbbb146100ff5780638da5cb5b1461011e578063b2ddee0614610144578063f2fde38b14610163575f5ffd5b806207df301461007157806367ecd843146100d6578063715018a6146100eb575b5f5ffd5b34801561007c575f5ffd5b506100b461008b366004610862565b600160208181525f9384526040808520909152918352912080549101546001600160a01b031682565b604080519283526001600160a01b039091166020830152015b60405180910390f35b6100e96100e4366004610862565b610182565b005b3480156100f6575f5ffd5b506100e961046e565b34801561010a575f5ffd5b506100e961011936600461088a565b610481565b348015610129575f5ffd5b505f546040516001600160a01b0390911681526020016100cd565b34801561014f575f5ffd5b506100e961015e366004610862565b6105e0565b34801561016e575f5ffd5b506100e961017d3660046108ba565b610745565b61018a610782565b6001600160a01b038083165f90815260016020818152604080842086855282529283902083518085019094528054808552920154909316928201929092529061021a5760405162461bcd60e51b815260206004820152601860248201527f4974656d206e6f74206c697374656420666f722073616c65000000000000000060448201526064015b60405180910390fd5b805134146102615760405162461bcd60e51b8152602060048201526014602482015273125b98dbdc9c9958dd081c1c9a58d9481cd95b9d60621b6044820152606401610211565b60208101516001600160a01b031633036102bd5760405162461bcd60e51b815260206004820152601860248201527f43616e6e6f742062757920796f7572206f776e20626f6f6b00000000000000006044820152606401610211565b6001600160a01b038381165f908152600160208181526040808420878552825280842084815590920180546001600160a01b031916905584015190519192169034908381818185875af1925050503d805f8114610335576040519150601f19603f3d011682016040523d82523d5f602084013e61033a565b606091505b505090508061038b5760405162461bcd60e51b815260206004820152601960248201527f5472616e7366657220746f2073656c6c6572206661696c6564000000000000006044820152606401610211565b604051632142170760e11b8152306004820152336024820152604481018490526001600160a01b038516906342842e0e906064015f604051808303815f87803b1580156103d6575f5ffd5b505af11580156103e8573d5f5f3e3d5ffd5b50505050336001600160a01b031683856001600160a01b03167fd24c26ca0749972b67b96dfdbe0013ab61be41d42ea026f5cb5171a3dfb0ae2c85602001513460405161044a9291906001600160a01b03929092168252602082015260400190565b60405180910390a4505061046a60015f5160206108db5f395f51905f5255565b5050565b61047661079d565b61047f5f6107c9565b565b610489610782565b5f81116104d85760405162461bcd60e51b815260206004820152601f60248201527f5072696365206d7573742062652067726561746572207468616e207a65726f006044820152606401610211565b604051632142170760e11b8152336004820152306024820152604481018390526001600160a01b038416906342842e0e906064015f604051808303815f87803b158015610523575f5ffd5b505af1158015610535573d5f5f3e3d5ffd5b50506040805180820182528481523360208083018281526001600160a01b038a81165f81815260018086528882208d83528652908890209651875592519590920180546001600160a01b0319169590911694909417909355925186815290945086935090917f42815242d618f4a0460dec5711d9b402613a0795a9ffc697c8adbc265964081a910160405180910390a46105db60015f5160206108db5f395f51905f5255565b505050565b6105e8610782565b6001600160a01b038083165f9081526001602081815260408084208685528252928390208351808501909452805484529091015490921691810182905290331461066d5760405162461bcd60e51b81526020600482015260166024820152752cb7ba9030b932903737ba103a34329039b2b63632b960511b6044820152606401610211565b6001600160a01b0383165f818152600160208181526040808420878552909152808320928355910180546001600160a01b031916905551632142170760e11b8152306004820152336024820152604481018490526342842e0e906064015f604051808303815f87803b1580156106e1575f5ffd5b505af11580156106f3573d5f5f3e3d5ffd5b50506040513392508491506001600160a01b038616907f8526cb6d400b8a551983c99e6d6fb1775b7a0deeb5d1e39d3ee65bc59e5eac27905f90a45061046a60015f5160206108db5f395f51905f5255565b61074d61079d565b6001600160a01b03811661077657604051631e4fbdf760e01b81525f6004820152602401610211565b61077f816107c9565b50565b61078a610818565b60025f5160206108db5f395f51905f5255565b5f546001600160a01b0316331461047f5760405163118cdaa760e01b8152336004820152602401610211565b5f80546001600160a01b038381166001600160a01b0319831681178455604051919092169283917f8be0079c531659141344cd1fd0a4f28419497f9722a3daafe3b4186f6b6457e09190a35050565b5f5160206108db5f395f51905f525460020361047f57604051633ee5aeb560e01b815260040160405180910390fd5b80356001600160a01b038116811461085d575f5ffd5b919050565b5f5f60408385031215610873575f5ffd5b61087c83610847565b946020939093013593505050565b5f5f5f6060848603121561089c575f5ffd5b6108a584610847565b95602085013595506040909401359392505050565b5f602082840312156108ca575f5ffd5b6108d382610847565b939250505056fe9b779b17422d0df92223018b32b4d1fa46e071723d6817e2486d003becc55f00a2646970667358221220163cac139949189044af78a9c30f4d9bb5c89c89bf74c3a7fd43f7a66ddbc07364736f6c634300081c0033",
  "linkReferences": {},
  "deployedLinkReferences": {},
  "immutableReferences": {},
  "inputSourceName": "project/contracts/BooksMarketplace.sol",
  "buildInfoId": "solc-0_8_28-2725f0bb7703978e32cb5cd5d4ba93f608d19e0d"
}